{
  "_format": "hh-sol-artifact-1",
  "contractName": "GoatToken",
  "sourceName": "contracts/GoatToken.sol",
  "abi": [
    {
      "inputs": [],
      "stateMutability": "nonpayable",
      "type": "constructor"
    },
    {
      "anonymous": false,
      "inputs": [
        {
          "indexed": true,
          "internalType": "address",
          "name": "owner",
          "type": "address"
        },
        {
          "indexed": true,
          "internalType": "address",
          "name": "approved",
          "type": "address"
        },
        {
          "indexed": true,
          "internalType": "uint256",
          "name": "tokenId",
          "type": "uint256"
        }
      ],
      "name": "Approval",
      "type": "event"
    },
    {
      "anonymous": false,
      "inputs": [
        {
          "indexed": true,
          "internalType": "address",
          "name": "owner",
          "type": "address"
        },
        {
          "indexed": true,
          "internalType": "address",
          "name": "operator",
          "type": "address"
        },
        {
          "indexed": false,
          "internalType": "bool",
          "name": "approved",
          "type": "bool"
        }
      ],
      "name": "ApprovalForAll",
      "type": "event"
    },
    {
      "anonymous": false,
      "inputs": [
        {
          "indexed": true,
          "internalType": "address",
          "name": "previousOwner",
          "type": "address"
        },
        {
          "indexed": true,
          "internalType": "address",
          "name": "newOwner",
          "type": "address"
        }
      ],
      "name": "OwnershipTransferred",
      "type": "event"
    },
    {
      "anonymous": false,
      "inputs": [
        {
          "indexed": true,
          "internalType": "address",
          "name": "from",
          "type": "address"
        },
        {
          "indexed": true,
          "internalType": "address",
          "name": "to",
          "type": "address"
        },
        {
          "indexed": true,
          "internalType": "uint256",
          "name": "tokenId",
          "type": "uint256"
        }
      ],
      "name": "Transfer",
      "type": "event"
    },
    {
      "inputs": [
        {
          "internalType": "address",
          "name": "to",
          "type": "address"
        },
        {
          "internalType": "uint256",
          "name": "tokenId",
          "type": "uint256"
        }
      ],
      "name": "approve",
      "outputs": [],
      "stateMutability": "nonpayable",
      "type": "function"
    },
    {
      "inputs": [
        {
          "internalType": "address",
          "name": "owner",
          "type": "address"
        }
      ],
      "name": "balanceOf",
      "outputs": [
        {
          "internalType": "uint256",
          "name": "",
          "type": "uint256"
        }
      ],
      "stateMutability": "view",
      "type": "function"
    },
    {
      "inputs": [
        {
          "internalType": "uint256",
          "name": "tokenId",
          "type": "uint256"
        }
      ],
      "name": "burn",
      "outputs": [],
      "stateMutability": "nonpayable",
      "type": "function"
    },
    {
      "inputs": [
        {
          "internalType": "uint256",
          "name": "tokenId",
          "type": "uint256"
        }
      ],
      "name": "getApproved",
      "outputs": [
        {
          "internalType": "address",
          "name": "",
          "type": "address"
        }
      ],
      "stateMutability": "view",
      "type": "function"
    },
    {
      "inputs": [
        {
          "internalType": "address",
          "name": "owner",
          "type": "address"
        },
        {
          "internalType": "address",
          "name": "operator",
          "type": "address"
        }
      ],
      "name": "isApprovedForAll",
      "outputs": [
        {
          "internalType": "bool",
          "name": "",
          "type": "bool"
        }
      ],
      "stateMutability": "view",
      "type": "function"
    },
    {
      "inputs": [],
      "name": "name",
      "outputs": [
        {
          "internalType": "string",
          "name": "",
          "type": "string"
        }
      ],
      "stateMutability": "view",
      "type": "function"
    },
    {
      "inputs": [],
      "name": "owner",
      "outputs": [
        {
          "internalType": "address",
          "name": "",
          "type": "address"
        }
      ],
      "stateMutability": "view",
      "type": "function"
    },
    {
      "inputs": [
        {
          "internalType": "uint256",
          "name": "tokenId",
          "type": "uint256"
        }
      ],
      "name": "ownerOf",
      "outputs": [
        {
          "internalType": "address",
          "name": "",
          "type": "address"
        }
      ],
      "stateMutability": "view",
      "type": "function"
    },
    {
      "inputs": [],
      "name": "renounceOwnership",
      "outputs": [],
      "stateMutability": "nonpayable",
      "type": "function"
    },
    {
      "inputs": [
        {
          "internalType": "address",
          "name": "to",
          "type": "address"
        },
        {
          "internalType": "string",
          "name": "uri",
          "type": "string"
        }
      ],
      "name": "safeMint",
      "outputs": [],
      "stateMutability": "nonpayable",
      "type": "function"
    },
    {
      "inputs": [
        {
          "internalType": "address",
          "name": "from",
          "type": "address"
        },
        {
          "internalType": "address",
          "name": "to",
          "type": "address"
        },
        {
          "internalType": "uint256",
          "name": "tokenId",
          "type": "uint256"
        }
      ],
      "name": "safeTransferFrom",
      "outputs": [],
      "stateMutability": "nonpayable",
      "type": "function"
    },
    {
      "inputs": [
        {
          "internalType": "address",
          "name": "from",
          "type": "address"
        },
        {
          "internalType": "address",
          "name": "to",
          "type": "address"
        },
        {
          "internalType": "uint256",
          "name": "tokenId",
          "type": "uint256"
        },
        {
          "internalType": "bytes",
          "name": "data",
          "type": "bytes"
        }
      ],
      "name": "safeTransferFrom",
      "outputs": [],
      "stateMutability": "nonpayable",
      "type": "function"
    },
    {
      "inputs": [
        {
          "internalType": "address",
          "name": "operator",
          "type": "address"
        },
        {
          "internalType": "bool",
          "name": "approved",
          "type": "bool"
        }
      ],
      "name": "setApprovalForAll",
      "outputs": [],
      "stateMutability": "nonpayable",
      "type": "function"
    },
    {
      "inputs": [
        {
          "internalType": "bytes4",
          "name": "interfaceId",
          "type": "bytes4"
        }
      ],
      "name": "supportsInterface",
      "outputs": [
        {
          "internalType": "bool",
          "name": "",
          "type": "bool"
        }
      ],
      "stateMutability": "view",
      "type": "function"
    },
    {
      "inputs": [],
      "name": "symbol",
      "outputs": [
        {
          "internalType": "string",
          "name": "",
          "type": "string"
        }
      ],
      "stateMutability": "view",
      "type": "function"
    },
    {
      "inputs": [
        {
          "internalType": "uint256",
          "name": "index",
          "type": "uint256"
        }
      ],
      "name": "tokenByIndex",
      "outputs": [
        {
          "internalType": "uint256",
          "name": "",
          "type": "uint256"
        }
      ],
      "stateMutability": "view",
      "type": "function"
    },
    {
      "inputs": [
        {
          "internalType": "address",
          "name": "owner",
          "type": "address"
        },
        {
          "internalType": "uint256",
          "name": "index",
          "type": "uint256"
        }
      ],
      "name": "tokenOfOwnerByIndex",
      "outputs": [
        {
          "internalType": "uint256",
          "name": "",
          "type": "uint256"
        }
      ],
      "stateMutability": "view",
      "type": "function"
    },
    {
      "inputs": [
        {
          "internalType": "uint256",
          "name": "tokenId",
          "type": "uint256"
        }
      ],
      "name": "tokenURI",
      "outputs": [
        {
          "internalType": "string",
          "name": "",
          "type": "string"
        }
      ],
      "stateMutability": "view",
      "type": "function"
    },
    {
      "inputs": [],
      "name": "totalSupply",
      "outputs": [
        {
          "internalType": "uint256",
          "name": "",
          "type": "uint256"
        }
      ],
      "stateMutability": "view",
      "type": "function"
    },
    {
      "inputs": [
        {
          "internalType": "address",
          "name": "from",
          "type": "address"
        },
        {
          "internalType": "address",
          "name": "to",
          "type": "address"
        },
        {
          "internalType": "uint256",
          "name": "tokenId",
          "type": "uint256"
        }
      ],
      "name": "transferFrom",
      "outputs": [],
      "stateMutability": "nonpayable",
      "type": "function"
    },
    {
      "inputs": [
        {
          "internalType": "address",
          "name": "newOwner",
          "type": "address"
        }
      ],
      "name": "transferOwnership",
      "outputs": [],
      "stateMutability": "nonpayable",
      "type": "function"
    }
  ],
  "bytecode": "0x60806040523480156200001157600080fd5b50604080518082018252600981526823b7b0ba2a37b5b2b760b91b60208083019182528351808501909452600384526247544b60e81b9084015281519192916200005e91600091620000ed565b50805162000074906001906020840190620000ed565b505050620000916200008b6200009760201b60201c565b6200009b565b620001d0565b3390565b600b80546001600160a01b038381166001600160a01b0319831681179093556040519116919082907f8be0079c531659141344cd1fd0a4f28419497f9722a3daafe3b4186f6b6457e090600090a35050565b828054620000fb9062000193565b90600052602060002090601f0160209004810192826200011f57600085556200016a565b82601f106200013a57805160ff19168380011785556200016a565b828001600101855582156200016a579182015b828111156200016a5782518255916020019190600101906200014d565b50620001789291506200017c565b5090565b5b808211156200017857600081556001016200017d565b600181811c90821680620001a857607f821691505b60208210811415620001ca57634e487b7160e01b600052602260045260246000fd5b50919050565b611c8380620001e06000396000f3fe608060405234801561001057600080fd5b50600436106101075760003560e01c806301ffc9a71461010c57806306fdde0314610134578063081812fc14610149578063095ea7b31461017457806318160ddd1461018957806323b872dd1461019b5780632f745c59146101ae57806342842e0e146101c157806342966c68146101d45780634f6ccce7146101e75780636352211e146101fa57806370a082311461020d578063715018a6146102205780638da5cb5b1461022857806395d89b4114610230578063a22cb46514610238578063b88d4fde1461024b578063c87b56dd1461025e578063d204c45e14610271578063e985e9c514610284578063f2fde38b14610297575b600080fd5b61011f61011a3660046116b9565b6102aa565b60405190151581526020015b60405180910390f35b61013c6102bb565b60405161012b919061172e565b61015c610157366004611741565b61034d565b6040516001600160a01b03909116815260200161012b565b610187610182366004611776565b610374565b005b6008545b60405190815260200161012b565b6101876101a93660046117a0565b61048f565b61018d6101bc366004611776565b6104c1565b6101876101cf3660046117a0565b610557565b6101876101e2366004611741565b610572565b61018d6101f5366004611741565b6105a3565b61015c610208366004611741565b610636565b61018d61021b3660046117dc565b61066b565b6101876106f1565b61015c610705565b61013c610714565b6101876102463660046117f7565b610723565b6101876102593660046118be565b610732565b61013c61026c366004611741565b61076a565b61018761027f366004611939565b610775565b61011f61029236600461199a565b6107ac565b6101876102a53660046117dc565b6107da565b60006102b582610850565b92915050565b6060600080546102ca906119cd565b80601f01602080910402602001604051908101604052809291908181526020018280546102f6906119cd565b80156103435780601f1061031857610100808354040283529160200191610343565b820191906000526020600020905b81548152906001019060200180831161032657829003601f168201915b5050505050905090565b600061035882610875565b506000908152600460205260409020546001600160a01b031690565b600061037f82610636565b9050806001600160a01b0316836001600160a01b031614156103f25760405162461bcd60e51b815260206004820152602160248201527f4552433732313a20617070726f76616c20746f2063757272656e74206f776e656044820152603960f91b60648201526084015b60405180910390fd5b336001600160a01b038216148061040e575061040e81336107ac565b6104805760405162461bcd60e51b815260206004820152603e60248201527f4552433732313a20617070726f76652063616c6c6572206973206e6f7420746f60448201527f6b656e206f776e6572206e6f7220617070726f76656420666f7220616c6c000060648201526084016103e9565b61048a838361089a565b505050565b61049a335b82610908565b6104b65760405162461bcd60e51b81526004016103e990611a08565b61048a838383610967565b60006104cc8361066b565b821061052e5760405162461bcd60e51b815260206004820152602b60248201527f455243373231456e756d657261626c653a206f776e657220696e646578206f7560448201526a74206f6620626f756e647360a81b60648201526084016103e9565b506001600160a01b03919091166000908152600660209081526040808320938352929052205490565b61048a83838360405180602001604052806000815250610732565b61057b33610494565b6105975760405162461bcd60e51b81526004016103e990611a08565b6105a081610afc565b50565b60006105ae60085490565b82106106115760405162461bcd60e51b815260206004820152602c60248201527f455243373231456e756d657261626c653a20676c6f62616c20696e646578206f60448201526b7574206f6620626f756e647360a01b60648201526084016103e9565b6008828154811061062457610624611a56565b90600052602060002001549050919050565b6000818152600260205260408120546001600160a01b0316806102b55760405162461bcd60e51b81526004016103e990611a6c565b60006001600160a01b0382166106d55760405162461bcd60e51b815260206004820152602960248201527f4552433732313a2061646472657373207a65726f206973206e6f7420612076616044820152683634b21037bbb732b960b91b60648201526084016103e9565b506001600160a01b031660009081526003602052604090205490565b6106f9610b05565b6107036000610b64565b565b600b546001600160a01b031690565b6060600180546102ca906119cd565b61072e338383610bb6565b5050565b61073c3383610908565b6107585760405162461bcd60e51b81526004016103e990611a08565b61076484848484610c81565b50505050565b60606102b582610cb4565b61077d610b05565b6000610788600c5490565b9050610798600c80546001019055565b6107a28382610dbd565b61048a8183610dd7565b6001600160a01b03918216600090815260056020908152604080832093909416825291909152205460ff1690565b6107e2610b05565b6001600160a01b0381166108475760405162461bcd60e51b815260206004820152602660248201527f4f776e61626c653a206e6577206f776e657220697320746865207a65726f206160448201526564647265737360d01b60648201526084016103e9565b6105a081610b64565b60006001600160e01b0319821663780e9d6360e01b14806102b557506102b582610e62565b61087e81610eb2565b6105a05760405162461bcd60e51b81526004016103e990611a6c565b600081815260046020526040902080546001600160a01b0319166001600160a01b03841690811790915581906108cf82610636565b6001600160a01b03167f8c5be1e5ebec7d5bd14f71427d1e84f3dd0314c0f7b2291e5b200ac8c7c3b92560405160405180910390a45050565b60008061091483610636565b9050806001600160a01b0316846001600160a01b0316148061093b575061093b81856107ac565b8061095f5750836001600160a01b03166109548461034d565b6001600160a01b0316145b949350505050565b826001600160a01b031661097a82610636565b6001600160a01b0316146109de5760405162461bcd60e51b815260206004820152602560248201527f4552433732313a207472616e736665722066726f6d20696e636f72726563742060448201526437bbb732b960d91b60648201526084016103e9565b6001600160a01b038216610a405760405162461bcd60e51b8152602060048201526024808201527f4552433732313a207472616e7366657220746f20746865207a65726f206164646044820152637265737360e01b60648201526084016103e9565b610a4b838383610ecf565b610a5660008261089a565b6001600160a01b0383166000908152600360205260408120805460019290610a7f908490611ab4565b90915550506001600160a01b0382166000908152600360205260408120805460019290610aad908490611acb565b909155505060008181526002602052604080822080546001600160a01b0319166001600160a01b038681169182179092559151849391871691600080516020611c2e83398151915291a4505050565b6105a081610eda565b33610b0e610705565b6001600160a01b0316146107035760405162461bcd60e51b815260206004820181905260248201527f4f776e61626c653a2063616c6c6572206973206e6f7420746865206f776e657260448201526064016103e9565b600b80546001600160a01b038381166001600160a01b0319831681179093556040519116919082907f8be0079c531659141344cd1fd0a4f28419497f9722a3daafe3b4186f6b6457e090600090a35050565b816001600160a01b0316836001600160a01b03161415610c145760405162461bcd60e51b815260206004820152601960248201527822a9219b99189d1030b8383937bb32903a379031b0b63632b960391b60448201526064016103e9565b6001600160a01b03838116600081815260056020908152604080832094871680845294825291829020805460ff191686151590811790915591519182527f17307eab39ab6107e8899845ad3d59bd9653f200f220920489ca2b5937696c31910160405180910390a3505050565b610c8c848484610967565b610c9884848484610f1a565b6107645760405162461bcd60e51b81526004016103e990611ae3565b6060610cbf82610875565b6000828152600a602052604081208054610cd8906119cd565b80601f0160208091040260200160405190810160405280929190818152602001828054610d04906119cd565b8015610d515780601f10610d2657610100808354040283529160200191610d51565b820191906000526020600020905b815481529060010190602001808311610d3457829003601f168201915b505050505090506000610d6f60408051602081019091526000815290565b9050805160001415610d82575092915050565b815115610db4578082604051602001610d9c929190611b35565b60405160208183030381529060405292505050919050565b61095f84611027565b61072e82826040518060200160405280600081525061109b565b610de082610eb2565b610e435760405162461bcd60e51b815260206004820152602e60248201527f45524337323155524953746f726167653a2055524920736574206f66206e6f6e60448201526d32bc34b9ba32b73a103a37b5b2b760911b60648201526084016103e9565b6000828152600a60209081526040909120825161048a928401906115d4565b60006001600160e01b031982166380ac58cd60e01b1480610e9357506001600160e01b03198216635b5e139f60e01b145b806102b557506301ffc9a760e01b6001600160e01b03198316146102b5565b6000908152600260205260409020546001600160a01b0316151590565b61048a8383836110ce565b610ee381611186565b6000818152600a602052604090208054610efc906119cd565b1590506105a0576000818152600a602052604081206105a091611658565b60006001600160a01b0384163b1561101c57604051630a85bd0160e11b81526001600160a01b0385169063150b7a0290610f5e903390899088908890600401611b64565b602060405180830381600087803b158015610f7857600080fd5b505af1925050508015610fa8575060408051601f3d908101601f19168201909252610fa591810190611ba1565b60015b611002573d808015610fd6576040519150601f19603f3d011682016040523d82523d6000602084013e610fdb565b606091505b508051610ffa5760405162461bcd60e51b81526004016103e990611ae3565b805181602001fd5b6001600160e01b031916630a85bd0160e11b14905061095f565b506001949350505050565b606061103282610875565b600061104960408051602081019091526000815290565b905060008151116110695760405180602001604052806000815250611094565b806110738461121b565b604051602001611084929190611b35565b6040516020818303038152906040525b9392505050565b6110a58383611318565b6110b26000848484610f1a565b61048a5760405162461bcd60e51b81526004016103e990611ae3565b6001600160a01b0383166111295761112481600880546000838152600960205260408120829055600182018355919091527ff3f7a9fe364faab93b216da50a3214154f22a0a2b415b23a84c8169e8b636ee30155565b61114c565b816001600160a01b0316836001600160a01b03161461114c5761114c8382611444565b6001600160a01b0382166111635761048a816114e1565b826001600160a01b0316826001600160a01b03161461048a5761048a8282611590565b600061119182610636565b905061119f81600084610ecf565b6111aa60008361089a565b6001600160a01b03811660009081526003602052604081208054600192906111d3908490611ab4565b909155505060008281526002602052604080822080546001600160a01b0319169055518391906001600160a01b03841690600080516020611c2e833981519152908390a45050565b60608161123f5750506040805180820190915260018152600360fc1b602082015290565b8160005b8115611269578061125381611bbe565b91506112629050600a83611bef565b9150611243565b6000816001600160401b0381111561128357611283611833565b6040519080825280601f01601f1916602001820160405280156112ad576020820181803683370190505b5090505b841561095f576112c2600183611ab4565b91506112cf600a86611c03565b6112da906030611acb565b60f81b8183815181106112ef576112ef611a56565b60200101906001600160f81b031916908160001a905350611311600a86611bef565b94506112b1565b6001600160a01b03821661136e5760405162461bcd60e51b815260206004820181905260248201527f4552433732313a206d696e7420746f20746865207a65726f206164647265737360448201526064016103e9565b61137781610eb2565b156113c35760405162461bcd60e51b815260206004820152601c60248201527b115490cdcc8c4e881d1bdad95b88185b1c9958591e481b5a5b9d195960221b60448201526064016103e9565b6113cf60008383610ecf565b6001600160a01b03821660009081526003602052604081208054600192906113f8908490611acb565b909155505060008181526002602052604080822080546001600160a01b0319166001600160a01b0386169081179091559051839290600080516020611c2e833981519152908290a45050565b600060016114518461066b565b61145b9190611ab4565b6000838152600760205260409020549091508082146114ae576001600160a01b03841660009081526006602090815260408083208584528252808320548484528184208190558352600790915290208190555b5060009182526007602090815260408084208490556001600160a01b039094168352600681528383209183525290812055565b6008546000906114f390600190611ab4565b6000838152600960205260408120546008805493945090928490811061151b5761151b611a56565b90600052602060002001549050806008838154811061153c5761153c611a56565b600091825260208083209091019290925582815260099091526040808220849055858252812055600880548061157457611574611c17565b6001900381819060005260206000200160009055905550505050565b600061159b8361066b565b6001600160a01b039093166000908152600660209081526040808320868452825280832085905593825260079052919091209190915550565b8280546115e0906119cd565b90600052602060002090601f0160209004810192826116025760008555611648565b82601f1061161b57805160ff1916838001178555611648565b82800160010185558215611648579182015b8281111561164857825182559160200191906001019061162d565b5061165492915061168e565b5090565b508054611664906119cd565b6000825580601f10611674575050565b601f0160209004906000526020600020908101906105a091905b5b80821115611654576000815560010161168f565b6001600160e01b0319811681146105a057600080fd5b6000602082840312156116cb57600080fd5b8135611094816116a3565b60005b838110156116f15781810151838201526020016116d9565b838111156107645750506000910152565b6000815180845261171a8160208601602086016116d6565b601f01601f19169290920160200192915050565b6020815260006110946020830184611702565b60006020828403121561175357600080fd5b5035919050565b80356001600160a01b038116811461177157600080fd5b919050565b6000806040838503121561178957600080fd5b6117928361175a565b946020939093013593505050565b6000806000606084860312156117b557600080fd5b6117be8461175a565b92506117cc6020850161175a565b9150604084013590509250925092565b6000602082840312156117ee57600080fd5b6110948261175a565b6000806040838503121561180a57600080fd5b6118138361175a565b91506020830135801515811461182857600080fd5b809150509250929050565b634e487b7160e01b600052604160045260246000fd5b60006001600160401b038084111561186357611863611833565b604051601f8501601f19908116603f0116810190828211818310171561188b5761188b611833565b816040528093508581528686860111156118a457600080fd5b858560208301376000602087830101525050509392505050565b600080600080608085870312156118d457600080fd5b6118dd8561175a565b93506118eb6020860161175a565b92506040850135915060608501356001600160401b0381111561190d57600080fd5b8501601f8101871361191e57600080fd5b61192d87823560208401611849565b91505092959194509250565b6000806040838503121561194c57600080fd5b6119558361175a565b915060208301356001600160401b0381111561197057600080fd5b8301601f8101851361198157600080fd5b61199085823560208401611849565b9150509250929050565b600080604083850312156119ad57600080fd5b6119b68361175a565b91506119c46020840161175a565b90509250929050565b600181811c908216806119e157607f821691505b60208210811415611a0257634e487b7160e01b600052602260045260246000fd5b50919050565b6020808252602e908201527f4552433732313a2063616c6c6572206973206e6f7420746f6b656e206f776e6560408201526d1c881b9bdc88185c1c1c9bdd995960921b606082015260800190565b634e487b7160e01b600052603260045260246000fd5b602080825260189082015277115490cdcc8c4e881a5b9d985b1a59081d1bdad95b88125160421b604082015260600190565b634e487b7160e01b600052601160045260246000fd5b600082821015611ac657611ac6611a9e565b500390565b60008219821115611ade57611ade611a9e565b500190565b60208082526032908201527f4552433732313a207472616e7366657220746f206e6f6e20455243373231526560408201527131b2b4bb32b91034b6b83632b6b2b73a32b960711b606082015260800190565b60008351611b478184602088016116d6565b835190830190611b5b8183602088016116d6565b01949350505050565b6001600160a01b0385811682528416602082015260408101839052608060608201819052600090611b9790830184611702565b9695505050505050565b600060208284031215611bb357600080fd5b8151611094816116a3565b6000600019821415611bd257611bd2611a9e565b5060010190565b634e487b7160e01b600052601260045260246000fd5b600082611bfe57611bfe611bd9565b500490565b600082611c1257611c12611bd9565b500690565b634e487b7160e01b600052603160045260246000fdfeddf252ad1be2c89b69c2b068fc378daa952ba7f163c4a11628f55a4df523b3efa2646970667358221220a94d06c67818ad23c4957fb4bfc377d8fe3f7d5e3e5c631df2634f165335cf0764736f6c63430008090033",
  "linkReferences": {},
  "deployedLinkReferences": {}
}